:020000040000FA
:03000000000004F9
:03000100000800F4
:03000200001FE4F8
:030003000047991A
:03000400007F0674
:0300050000C6151D
:03000600011CAE2C
:030007000182BAB9
:0300080001F823D9
:03000900027CD2A4
:03000A000310B12F
:03000B0003B3A894
:03000C000465A2E6
:03000D000526893C
:03000E0005F648AC
:03000F0006D4C84C
:0300100007C1F431
:0300110008BDB770
:0300120009C7FC1F
:030013000AE0AE52
:030014000C07B71F
:030015000D3D039B
:030016000E807FDA
:030017000FD214F1
:030018000131B003
:03001900029F3E05
:03001A00041AA91C
:03001B0005A3E05A
:03001C00073ACDD3
:03001D0008DF5D9C
:03001E000A917EC6
:03001F000C511B66
:030020000E1E228F
:030021000FF88055
:0300220001E022D8
:0300230003D4F50E
:0300240005D6E816
:0300250007E5E705
:030026000A01E1EB
:030027000C2AC2DE
:030028000E607BEC
:0300290000A2F73B
:03002A0002F227B8
:03002B00054DF888
:03002C0007B659BB
:03002D000A2B3863
:03002E000CAC8493
:03002F000F3A2D58
:0300300001D421D7
:03003100047A50FE
:03003200072CA8F0
:0300330009EB19BD
:030034000CB59375
:030035000F8C0627
:03003600026E60F7
:03003700055C93D2
:0300380008568DDA
:030039000B5C3F1E
:03003A000E6D9AAE
:03003B00018A8DAA
:03003C0004B30901
:03003D0007E6FFD4
:03003E000B265F2F
:03003F000E711A25
:0300400001C720D5
:030041000528642B
:030042000894D54A
:030043000C0C653D
:030044000F8F0615
:03004500031CA8F1
:0300460006B53DBF
:030047000A58B79D
:030048000E070799
:0300490001C020D3
:03004A000583F239
:03004B00095271E6
:03004C000D2B8EEB
:03004D00010F3A66
:03004E0004FD6945
:03004F0008F60DA3
:030050000CF9198F
:0300510001067E27
:03005200051E2F59
:0300530009401F42
:030054000D6C42EE
:0300550001A2897C
:0300560005E2E8D8
:030057000A2D511E
:030058000E81B95D
:0300590002E012B0
:03005A0007484F05
:03005B000BBA6479
:03005C0000364427
:03005D0004BBE4FD
:03005E00094B3615
:03005F000DE42E7F
:030060000286C154
:030061000732E182
:030062000BE88424
:0300630000A79C57
:0300640005701F05
:030065000A42004C
:030066000F1D3338
:030067000401AEE3
:0300680008EF643A
:030069000DE64A57
:03006A0002E65556
:03006B0007EF7923
:03006C000D01ABD8
:03006D00021CDF93
:03006E0007410B3C
:03006F000C6E24F0
:0300700001A41ECA
:0300710006E2EFB5
:030072000C2A8CC9
:03007300017AE926
:0300740006D3FDB3
:030075000C35BD8A
:0300760001A01EC8
:0300770007131557
:030078000C8E9952
:0300790002129ED2
:03007A00079F1BC2
:03007B000D34063B
:03007C0002D1535B
:03007D000876F909
:03007E000E24EE5F
:03007F0003DB2878
:0300800009999E3D
:030081000F6044C9
:03008200052F1235
:030083000B05FD6D
:0300840000E4FC99
:0300850006CC06A0
:030086000CBB10A0
:0300870002B211B1
:0300880008B101BB
:030089000EB7D5DA
:03008A0004C68425
:03008B000ADD0487
:03008C0000FB4E28
:03008D00072157F1
:03008E000D4F16FD
:03008F0003848364
:0300900009C1940F
:0300910000064026
:0300920006527F94
:030093000CA64870
:03009400030191D4
:03009500096453A8
:030096000FCE8406
:0300970006401D03
:030098000CB9138D
:03009900033960C8
:03009A0009C0FAA0
:03009B00004FD93A
:03009C0006E5F581
:03009D000D83458B
:03009E000427C173
:03009F000AD36120
:0300A00001861CBA
:0300A100083FEC29
:0300A2000F00C686
:0300A30005C8A5E8
:0300A4000C977F37
:0300A500036D4C9C
:0300A6000A4A05FE
:0300A700012DA385
:0300A80008181C19
:0300A9000F096AD2
:0300AA00060184C8
:0300AB000D0064E1
:0300AC0004060146
:0300AD000B1254DF
:0300AE00022555D3
:0300AF00093EFE09
:0300B000005F45A9
:0300B1000786259A
:0300B2000EB396F4
:0300B30005E790CE
:0300B4000D220D0D
:0300B500046304DD
:0300B6000BAA7022
:0300B70002F84804
:0300B8000A4C856A
:0300B90001A7227A
:0300BA000908161C
:0300BB00006F5A79
:0300BC0007DCE876
:0300BD000F50B928
:0300BE0006CAC6A9
:0300BF000E4B08DD
:0300C00005D178EF
:0300C1000D5E10C1
:0300C20004F0C97E
:0300C3000C899C09
:0300C4000428838A
:0300C5000BCD77E9
:0300C6000378724A
:0300C7000B296C96
:0300C80002E060F3
:0300C9000A9D4746
:0300CA0002601BB6
:0300CB000A28D52B
:0300CC0001F76FCA
:0300CD0009CBE379
:0300CE0001A62A5E
:0300CF0009863F60
:0300D000016C1BA5
:0300D1000957B715
:0300D20001490FD2
:0300D30009401BC6
:0300D400013CD517
:0300D500093F39A7
:0300D60001473FA0
:0300D7000954E1E8
:0300D80001681AA2
:0300D9000980E5B6
:0300DA00019F3A49
:0300DB0009C31442
:0300DC0001EC6EC6
:0300DD000A1B42B9
:0300DE00024F8945
:0300DF000A893F4C
:0300E00002C85DF6
:0300E1000B0CDE27
:0300E2000356BD05
:0300E3000BA5F377
:0300E40003FA7BA1
:0300E5000C545068
:0300E60004B36CF4
:0300E7000D17CA28
:0300E8000581642B
:0300E9000DF035E2
:0300EA0006643871
:0300EB000EDD67C0
:0300EC00075BBDF2
:0300ED000FDF34EE
:0300EE000867C8D8
:0300EF0000F573A6
:0300F0000988304C
:0300F100021FF9F2
:0300F2000ABCCA7B
:0300F300035E9E0B
:0300F4000C056F89
:0300F50004B1381B
:0300F6000D61F5A4
:0300F7000617A049
:0300F8000ED234F1
:0300F9000791ADBF
:0300FA00005605A8
:0300FB00091F38A2
:0300FC0001ED40D3
:0300FD000AC0191D
:0300FE000397BEA7
:0300FF000C742B53
:0301000005555949
:030101000E3B466C
:030102000725EBE3
:03010300001544A0
:0301040009094D99
:03010500020201F2
:030106000AFF5B92
:030107000401569A
:030108000D07EFF1
:03010900061320BA
:03010A000F22E5DC
:03010B0008373A78
:03010C0001501986
:03010D000A6D7FF9
:03010E00038F67F5
:03010F000CB5CC60
:0301100005E0AB5C
:030111000F0FFFCE
:030112000843C3DC
:03011300017BF37A
:030114000AB88B9B
:0301150003F98764
:030116000D3EE2B9
:03011700068898BF
:030118000FD6A45B
:03011900092904AD
:03011A00027FB1B0
:03011B000BDAA953
:03011C000539E8BA
:03011D000E9D68CC
:03011E00080526AB
:03011F0001711E4D
:030120000AE14CA5
:030121000455ABD7
:030122000DCE38C7
:03012300074AEF99
:0301240000CBCC41
:030125000A50CAB3
:0301260003D9E713
:030127000D671D44
:0301280006F8696D
:03012900008DC87E
:03012A000A27356C
:03012B0003C4AC5E
:03012C000D662A33
:03012D00070BAB12
:03012E0000B52AEF
:03012F000A62A5BC
:030130000414189C
:030131000DC97E77
:030132000782D56C
:0301330001401870
:030134000B014478
:0301350004C654A9
:030136000E8F47E2
:03013700085C174A
:03013800022CC1D5
:030139000C014274
:03013A0005D9964E
:03013B000FB5B944
:03013C000995A87A
:03013D00037960E3
:03013E000D60DD74
:03013F00074C1B4F
:03014000013B1868
:030141000B2DCFB4
:0301420005243C55
:030143000F1E5E2E
:03014400091C3063
:03014500031DAFE8
:030146000D22D7B0
:03014700072BA6DD
:0301480001381764
:030149000B482937
:03014A00055BD67C
:03014B000F731C13
:03014C00098DF822
:03014D0003AC669A
:03014E000DCE646F
:03014F0007F3EDC6
:03015000021CFF8F
:030151000C4997BF
:030152000679B17A
:0301530000AD4AB2
:030154000AE45F5B
:03015500051EED97
:030156000F5CF14A
:03015700099E6896
:0301580003E34E70
:030159000E2BA1C9
:03015A0008775DC6
:03015B0002C67F5A
:03015C000D190575
:03015D00076EEB3F
:03015E0001C82FA6
:03015F000C24CDA0
:030160000684C250
:0301610000E80BA8
:030162000B4EA69B
:0301630005B88F4D
:030164000025C4AF
:030165000A9642B5
:03016600050A0582
:030167000F810BFA
:0301680009FB513F
:030169000478D542
:03016A000EF992F9
:03016B00097D8784
:03016C000404B1D7
:03016D000E8F0CE6
:03016E00091C97D2
:03016F0003AD4E8F
:030170000E412E0F
:0301710008D83576
:03017200037260B5
:030173000E0FACC0
:0301740008B017B9
:0301750003539D94
:030176000DFA3D42
:0301770008A3F3E7
:030178000350BC75
:030179000E0097DE
:03017A0008B38146
:03017B000369769F
:03017C000E2274DC
:03017D0008DE7A1F
:03017E00039D835B
:03017F000E5F8D83
:03018000092496B9
:0301810003EC9CF0
:030182000EB79B1A
:0301830009859259
:0301840004567DA1
:030185000F2A5AE4
:030186000A012744
:0301870004DAE1B6
:030188000FB78529
:030189000A9712C0
:03018A0005798470
:03018B00005EDA39
:03018C000B47100E
:03018D0006322512
:03018E0001201637
:03018F000C10E071
:03019000070482DF
:0301910001FAF878
:030192000CF4402A
:0301930007F05919
:0301940002EF3F38
:030195000DF0F179
:0301960008F56BFE
:0301970003FCACBA
:030198000F06B29D
:030199000A1379CD
:03019A000523003A
:03019B00003545E7
:03019C000B4A44C7
:03019D000661FDFB
:03019E00017C6C75
:03019F000C998F29
:0301A00007B96537
:0301A10002DBEB93
:0301A2000E011E2D
:0301A3000928FD2B
:0301A4000453857C
:0301A5000F80B414
:0301A6000AB08814
:0301A70005E2FE70
:0301A80001181526
:0301A9000C4FCB2D
:0301AA00078A1DA4
:0301AB0002C7097F
:0301AC000E068DAF
:0301AD000948A757
:0301AE00048D5568
:0301AF000FD494D6
:0301B0000B1E63C0
:0301B100066AC01B
:0301B20001B9A8E8
:0301B3000D0B1918
:0301B400085F12CF
:0301B50003B590FF
:0301B6000F0E9198
:0301B7000A6A14BD
:0301B80005C81562
:0301B90001289486
:0301BA000C8B8E1D
:0301BB0007F10148
:0301BC000358EBFA
:0301BD000EC34B23
:0301BE000A301EE6
:0301BF00059F6237
:0301C00001111515
:0301C1000C853674
:0301C20007FBC276
:0301C3000374B80A
:0301C4000EF01525
:0301C5000A6DD8E8
:0301C60005EDFF45
:0301C7000170873D
:0301C8000CF570C3
:0301C900087CB7F8
:0301CA00040659CF
:0301CB000F925739
:0301CC000B20AD58
:0301CD0006B1591F
:0301CE0002445A8E
:0301CF000DD9AE99
:0301D0000971545E
:0301D100050B48D3
:0301D20000A78BF8
:0301D3000C4618BF
:0301D40007E6F04B
:0301D500038A108A
:0301D6000F2F7672
:0301D7000AD72123
:0301D80006810E8F
:0301D900022D3DB7
:0301DA000DDBAB8F
:0301DB00098C5636
:0301DC00053F3D9F
:0301DD0000F45ECD
:0301DE000CABB7B0
:0301DF0008654769
:0301E00004210CEB
:0301E1000FDF0429
:0301E2000B9F2E42
:0301E3000761872A
:0301E40003260EE1
:0301E5000EECC25B
:0301E6000AB5A0B7
:0301E7000680A8E7
:0301E800024DD7EE
:0301E9000E1D2CBC
:0301EA0009EEA477
:0301EB0005C2400A
:0301EC000197FC7C
:0301ED000D6FD7BC
:0301EE000949D0EC
:0301EF000525E5FE
:0301F000010414F3
:0301F1000CE45CBF
:0301F20008C6BC80
:0301F30004AB302A
:0301F4000091B9BE
:0301F5000C7A542D
:0301F60008650099
:0301F7000451BCF4
:0301F8000040853F
:0301F9000C315A6C
:0301FA0008243A9C
:0301FB00041923C1
:0301FC00001014DC
:0301FD000C090BDF
:0301FE00080406EC
:0301FF00040104F4
:00000001ff
