:020000040000FA
:020000000200FC
:0200010001FFFD
:0200020001FEFD
:0200030001FDFD
:0200040001FCFD
:0200050001FBFD
:0200060001FAFD
:0200070001F9FD
:0200080001F8FD
:0200090001F7FD
:02000A0001F6FD
:02000B0001F5FD
:02000C0001F4FD
:02000D0001F3FD
:02000E0001F2FD
:02000F0001F1FD
:0200100001F0FD
:0200110001EFFD
:0200120001EEFD
:0200130001EDFD
:0200140001ECFD
:0200150001EBFD
:0200160001EAFD
:0200170001E9FD
:0200180001E9FC
:0200190001E8FC
:02001A0001E7FC
:02001B0001E6FC
:02001C0001E5FC
:02001D0001E4FC
:02001E0001E3FC
:02001F0001E2FC
:0200200001E1FC
:0200210001E0FC
:0200220001E0FB
:0200230001DFFB
:0200240001DEFB
:0200250001DDFB
:0200260001DCFB
:0200270001DBFB
:0200280001DAFB
:0200290001DAFA
:02002A0001D9FA
:02002B0001D8FA
:02002C0001D7FA
:02002D0001D6FA
:02002E0001D5FA
:02002F0001D4FA
:0200300001D4F9
:0200310001D3F9
:0200320001D2F9
:0200330001D1F9
:0200340001D0F9
:0200350001CFF9
:0200360001CFF8
:0200370001CEF8
:0200380001CDF8
:0200390001CCF8
:02003A0001CBF8
:02003B0001CBF7
:02003C0001CAF7
:02003D0001C9F7
:02003E0001C8F7
:02003F0001C7F7
:0200400001C7F6
:0200410001C6F6
:0200420001C5F6
:0200430001C4F6
:0200440001C3F6
:0200450001C3F5
:0200460001C2F5
:0200470001C1F5
:0200480001C0F5
:0200490001C0F4
:02004A0001BFF4
:02004B0001BEF4
:02004C0001BDF4
:02004D0001BDF3
:02004E0001BCF3
:02004F0001BBF3
:0200500001BAF3
:0200510001BAF2
:0200520001B9F2
:0200530001B8F2
:0200540001B7F2
:0200550001B7F1
:0200560001B6F1
:0200570001B5F1
:0200580001B4F1
:0200590001B4F0
:02005A0001B3F0
:02005B0001B2F0
:02005C0001B2EF
:02005D0001B1EF
:02005E0001B0EF
:02005F0001AFEF
:0200600001AFEE
:0200610001AEEE
:0200620001ADEE
:0200630001ADED
:0200640001ACED
:0200650001ABED
:0200660001AAED
:0200670001AAEC
:0200680001A9EC
:0200690001A8EC
:02006A0001A8EB
:02006B0001A7EB
:02006C0001A6EB
:02006D0001A6EA
:02006E0001A5EA
:02006F0001A4EA
:0200700001A4E9
:0200710001A3E9
:0200720001A2E9
:0200730001A2E8
:0200740001A1E8
:0200750001A0E8
:0200760001A0E7
:02007700019FE7
:02007800019EE7
:02007900019EE6
:02007A00019DE6
:02007B00019CE6
:02007C00019CE5
:02007D00019BE5
:02007E00019AE5
:02007F00019AE4
:020080000199E4
:020081000198E4
:020082000198E3
:020083000197E3
:020084000197E2
:020085000196E2
:020086000195E2
:020087000195E1
:020088000194E1
:020089000193E1
:02008A000193E0
:02008B000192E0
:02008C000192DF
:02008D000191DF
:02008E000190DF
:02008F000190DE
:02009000018FDE
:02009100018FDD
:02009200018EDD
:02009300018DDD
:02009400018DDC
:02009500018CDC
:02009600018BDC
:02009700018BDB
:02009800018ADB
:02009900018ADA
:02009A000189DA
:02009B000189D9
:02009C000188D9
:02009D000187D9
:02009E000187D8
:02009F000186D8
:0200A0000186D7
:0200A1000185D7
:0200A2000184D7
:0200A3000184D6
:0200A4000183D6
:0200A5000183D5
:0200A6000182D5
:0200A7000182D4
:0200A8000181D4
:0200A9000180D4
:0200AA000180D3
:0200AB00017FD3
:0200AC00017FD2
:0200AD00017ED2
:0200AE00017ED1
:0200AF00017DD1
:0200B000017DD0
:0200B100017CD0
:0200B200017BD0
:0200B300017BCF
:0200B400017ACF
:0200B500017ACE
:0200B6000179CE
:0200B7000179CD
:0200B8000178CD
:0200B9000178CC
:0200BA000177CC
:0200BB000177CB
:0200BC000176CB
:0200BD000175CB
:0200BE000175CA
:0200BF000174CA
:0200C0000174C9
:0200C1000173C9
:0200C2000173C8
:0200C3000172C8
:0200C4000172C7
:0200C5000171C7
:0200C6000171C6
:0200C7000170C6
:0200C8000170C5
:0200C900016FC5
:0200CA00016FC4
:0200CB00016EC4
:0200CC00016EC3
:0200CD00016DC3
:0200CE00016DC2
:0200CF00016CC2
:0200D000016CC1
:0200D100016BC1
:0200D200016BC0
:0200D300016AC0
:0200D400016ABF
:0200D5000169BF
:0200D6000169BE
:0200D7000168BE
:0200D8000168BD
:0200D9000167BD
:0200DA000167BC
:0200DB000166BC
:0200DC000166BB
:0200DD000165BB
:0200DE000165BA
:0200DF000164BA
:0200E0000164B9
:0200E1000163B9
:0200E2000163B8
:0200E3000162B8
:0200E4000162B7
:0200E5000161B7
:0200E6000161B6
:0200E7000160B6
:0200E8000160B5
:0200E900015FB5
:0200EA00015FB4
:0200EB00015EB4
:0200EC00015EB3
:0200ED00015DB3
:0200EE00015DB2
:0200EF00015DB1
:0200F000015CB1
:0200F100015CB0
:0200F200015BB0
:0200F300015BAF
:0200F400015AAF
:0200F500015AAE
:0200F6000159AE
:0200F7000159AD
:0200F8000158AD
:0200F9000158AC
:0200FA000158AB
:0200FB000157AB
:0200FC000157AA
:0200FD000156AA
:0200FE000156A9
:0200FF000155A9
:020100000155A7
:020101000154A7
:020102000154A6
:020103000154A5
:020104000153A5
:020105000153A4
:020106000152A4
:020107000152A3
:020108000151A3
:020109000151A2
:02010A000150A2
:02010B000150A1
:02010C000150A0
:02010D00014FA0
:02010E00014F9F
:02010F00014E9F
:02011000014E9E
:02011100014D9E
:02011200014D9D
:02011300014D9C
:02011400014C9C
:02011500014C9B
:02011600014B9B
:02011700014B9A
:02011800014A9A
:02011900014A99
:02011A00014A98
:02011B00014998
:02011C00014997
:02011D00014897
:02011E00014896
:02011F00014895
:02012000014795
:02012100014794
:02012200014694
:02012300014693
:02012400014692
:02012500014592
:02012600014591
:02012700014491
:02012800014490
:0201290001448F
:02012A0001438F
:02012B0001438E
:02012C0001428E
:02012D0001428D
:02012E0001428C
:02012F0001418C
:0201300001418B
:0201310001408B
:0201320001408A
:02013300014089
:02013400013F89
:02013500013F88
:02013600013E88
:02013700013E87
:02013800013E86
:02013900013D86
:02013A00013D85
:02013B00013C85
:02013C00013C84
:02013D00013C83
:02013E00013B83
:02013F00013B82
:02014000013B81
:02014100013A81
:02014200013A80
:02014300013980
:0201440001397F
:0201450001397E
:0201460001387E
:0201470001387D
:0201480001387C
:0201490001377C
:02014A0001377B
:02014B0001367B
:02014C0001367A
:02014D00013679
:02014E00013579
:02014F00013578
:02015000013577
:02015100013477
:02015200013476
:02015300013475
:02015400013375
:02015500013374
:02015600013274
:02015700013273
:02015800013272
:02015900013172
:02015A00013171
:02015B00013170
:02015C00013070
:02015D0001306F
:02015E0001306E
:02015F00012F6E
:02016000012F6D
:02016100012F6C
:02016200012E6C
:02016300012E6B
:02016400012E6A
:02016500012D6A
:02016600012D69
:02016700012C69
:02016800012C68
:02016900012C67
:02016A00012B67
:02016B00012B66
:02016C00012B65
:02016D00012A65
:02016E00012A64
:02016F00012A63
:02017000012963
:02017100012962
:02017200012961
:02017300012861
:02017400012860
:0201750001285F
:0201760001275F
:0201770001275E
:0201780001275D
:0201790001265D
:02017A0001265C
:02017B0001265B
:02017C0001255B
:02017D0001255A
:02017E00012559
:02017F00012459
:02018000012458
:02018100012457
:02018200012357
:02018300012356
:02018400012355
:02018500012255
:02018600012254
:02018700012253
:02018800012153
:02018900012152
:02018A00012151
:02018B00012150
:02018C00012050
:02018D0001204F
:02018E0001204E
:02018F00011F4E
:02019000011F4D
:02019100011F4C
:02019200011E4C
:02019300011E4B
:02019400011E4A
:02019500011D4A
:02019600011D49
:02019700011D48
:02019800011C48
:02019900011C47
:02019A00011C46
:02019B00011C45
:02019C00011B45
:02019D00011B44
:02019E00011B43
:02019F00011A43
:0201A000011A42
:0201A100011A41
:0201A200011941
:0201A300011940
:0201A40001193F
:0201A50001183F
:0201A60001183E
:0201A70001183D
:0201A80001183C
:0201A90001173C
:0201AA0001173B
:0201AB0001173A
:0201AC0001163A
:0201AD00011639
:0201AE00011638
:0201AF00011538
:0201B000011537
:0201B100011536
:0201B200011535
:0201B300011435
:0201B400011434
:0201B500011433
:0201B600011333
:0201B700011332
:0201B800011331
:0201B900011330
:0201BA00011230
:0201BB0001122F
:0201BC0001122E
:0201BD0001112E
:0201BE0001112D
:0201BF0001112C
:0201C00001112B
:0201C10001102B
:0201C20001102A
:0201C300011029
:0201C400010F29
:0201C500010F28
:0201C600010F27
:0201C700010F26
:0201C800010E26
:0201C900010E25
:0201CA00010E24
:0201CB00010D24
:0201CC00010D23
:0201CD00010D22
:0201CE00010D21
:0201CF00010C21
:0201D000010C20
:0201D100010C1F
:0201D200010C1E
:0201D300010B1E
:0201D400010B1D
:0201D500010B1C
:0201D600010A1C
:0201D700010A1B
:0201D800010A1A
:0201D900010A19
:0201DA00010919
:0201DB00010918
:0201DC00010917
:0201DD00010916
:0201DE00010816
:0201DF00010815
:0201E000010814
:0201E100010714
:0201E200010713
:0201E300010712
:0201E400010711
:0201E500010611
:0201E600010610
:0201E70001060F
:0201E80001060E
:0201E90001050E
:0201EA0001050D
:0201EB0001050C
:0201EC0001050B
:0201ED0001040B
:0201EE0001040A
:0201EF00010409
:0201F000010408
:0201F100010308
:0201F200010307
:0201F300010306
:0201F400010305
:0201F500010205
:0201F600010204
:0201F700010203
:0201F800010202
:0201F900010102
:0201FA00010101
:0201FB00010100
:0201FC000101FF
:0201FD000100FF
:0201FE000100FE
:0201FF000100FD
:00000001ff
