:020000040000FA
:03000000000002FB
:03000100000FF6F7
:03000200001FD20A
:03000300002F9536
:03000400003F4476
:03000500004ED9D1
:03000600005E5841
:03000700006DC1C8
:03000800007D1464
:03000900008C4D1B
:03000A00009B6FE9
:03000B0000AA7FC9
:03000C0000B977C1
:03000D0000C85BCD
:03000E0000D726F2
:03000F0000E5DC2D
:0300100000F47E7B
:0300110001030CDC
:0300120001118158
:03001300011FE1E9
:03001400012E2F8B
:03001500013C6A41
:03001600014A8D0F
:0300170001589FEE
:03001800016699E5
:03001900017480EF
:03001A0001825808
:03001B000190163B
:03001C00019DC380
:03001D0001AB5FD5
:03001E0001B8E343
:03001F0001C657C0
:0300200001D3B851
:0300210001E105F5
:0300220001EE3FAD
:0300230001FB6975
:0300240002087D52
:0300250002158140
:0300260002227043
:03002700022F5352
:03002800023C1D7A
:030029000248DDAD
:03002A00025585F7
:03002B0002621D51
:03002C00026EA3BE
:03002D00027B193A
:03002E00028781C5
:03002F000293D465
:0300300002A01615
:0300310002AC47D7
:0300320002B86AA7
:0300330002C47C88
:0300340002D07C7B
:0300350002DC6A80
:0300360002E84B92
:0300370002F419B7
:0300380002FFDBE9
:03003900030B8C2A
:03003A0003172B7E
:03003B000322BDE0
:03003C00032E3E52
:03003D000339AFD5
:03003E0003451166
:03003F0003506308
:03004000035BAAB5
:030041000366DD76
:0300420003720541
:03004300037D1D1D
:030044000388240A
:0300450003931F03
:03004600039E0C0A
:0300470003A8E823
:0300480003B3BA45
:0300490003BE787B
:03004A0003C92EB9
:03004B0003D3D00C
:03004C0003DE6769
:03004D0003E8F2D3
:03004E0003F36E4B
:03004F0003FDDDD1
:0300500004083A67
:0300510004128E08
:03005200041CD4B7
:0300530004270E71
:030054000431373D
:03005500043B5613
:03005600044567F7
:03005700044F6DE6
:03005800045962E6
:0300590004634DF0
:03005A00046D2C06
:03005B000476FD2B
:03005C000480C459
:03005D00048A7B97
:03005E00049428DF
:03005F00049DC835
:0300600004A75B97
:0300610004B0E404
:0300620004BA5F7E
:0300630004C3D102
:0300640004CD3494
:0300650004D68C32
:0300660004DFDCD8
:0300670004E91D8C
:0300680004F2524D
:0300690004FB7E17
:03006A0005049BEF
:03006B00050DADD3
:03006C000516B6C0
:03006D00051FB5B7
:03006E000528A7BB
:03006F0005318DCB
:03007000053A69E5
:030071000543390B
:03007200054BFE3D
:030073000554BE73
:03007400055D6FB8
:0300750005661409
:03007600056EAE66
:03007700057742C8
:03007800057FC63B
:03007900058846B1
:03007A000590B737
:03007B0005991DC7
:03007C0005A17C5F
:03007D0005A9D101
:03007E0005B21CAC
:03007F0005BA5B64
:0300800005C28F27
:0300810005CABBF2
:0300820005D2DDC7
:0300830005DAF7A4
:0300840005E3068B
:0300850005EB0B7D
:0300860005F30778
:0300870005FAFC7B
:030088000602E38A
:03008900060AC2A2
:03008A00061298C3
:03008B00061A69E9
:03008C0006222A1F
:03008D000629E55C
:03008E00063198A0
:03008F0006393FF0
:030090000640DF48
:03009100064878A6
:0300920006500510
:0300930006578A83
:03009400065F09FB
:0300950006667C80
:03009600066DE80C
:03009700067548A3
:03009800067CA53E
:030099000683F5E6
:03009A00068B3F93
:03009B0006927F4B
:03009C000699B60C
:03009D0006A0E6D4
:03009E0006A80FA2
:03009F0006AF2F7A
:0300A00006B64859
:0300A10006BD5544
:0300A20006C46031
:0300A30006CB5D2C
:0300A40006D2552C
:0300A50006D94534
:0300A60006E02F42
:0300A70006E70C5D
:0300A80006EDE67C
:0300A90006F4B6A4
:0300AA0006FB80D2
:0300AB0007024009
:0300AC000708FA48
:0300AD00070FAD8D
:0300AE00071657DB
:0300AF00071CF833
:0300B0000723988B
:0300B100072A2CEF
:0300B2000730B95B
:0300B30007373ECE
:0300B400073DBC49
:0300B500074434C9
:0300B600074AA254
:0300B70007510BE3
:0300B80007577077
:0300B900075DC818
:0300BA0007641DBB
:0300BB00076A6C65
:0300BC000770B218
:0300BD000776F1D2
:0300BE00077D2992
:0300BF0007835B59
:0300C00007898825
:0300C100078FACFA
:0300C2000795C9D6
:0300C300079BE1B7
:0300C40007A1F0A1
:0300C50007A7F991
:0300C60007ADFB88
:0300C70007B3F983
:0300C80007B9F085
:0300C90007BFDF8F
:0300CA0007C5C99E
:0300CB0007CBADB3
:0300CC0007D18ACF
:0300CD0007D75FF3
:0300CE0007DD3219
:0300CF0007E2FA4B
:0300D00007E8BD81
:0300D10007EE7CBB
:0300D20007F431FF
:0300D30007F9E446
:0300D40007FF9192
:0300D500080534E7
:0300D600080AD441
:0300D70008106F9F
:0300D80008160502
:0300D900081B9071
:0300DA0008211AE0
:0300DB0008269E56
:0300DC00082C19D4
:0300DD0008318F58
:0300DE00083701DF
:0300DF00083C6B6F
:0300E0000841D103
:0300E1000847319C
:0300E200084C893E
:0300E3000851DFE2
:0300E4000857308A
:0300E500085C7A3A
:0300E6000861BFEF
:0300E7000866FEAA
:0300E800086C3968
:0300E90008716D2E
:0300EA0008769BFA
:0300EB00087BC3CC
:0300EC000880E8A1
:0300ED000886077B
:0300EE00088B205C
:0300EF0008903442
:0300F0000895432D
:0300F100089A501A
:0300F200089F550F
:0300F30008A4530B
:0300F40008A94F09
:0300F50008AE460C
:0300F60008B33616
:0300F70008B82125
:0300F80008BD0A36
:0300F90008C1EB50
:0300FA0008C6C86D
:0300FB0008CB9F90
:0300FC0008D074B5
:0300FD0008D543E0
:0300FE0008DA0B12
:0300FF0008DECE4A
:0301000008E38F82
:0301010008E848C3
:0301020008ED0005
:0301030008F1B34D
:0301040008F65F9B
:0301050008FB06EE
:0301060008FFAB44
:0301070009044C9C
:030108000908E6FD
:03010900090D7C61
:03010A0009120DCA
:03010B0009169A38
:03010C00091B24A8
:03010D00091FA81F
:03010E0009242899
:03010F000928A517
:03011000092D1B9B
:0301110009318C25
:030112000935FBB1
:03011300093A6640
:03011400093ECBD6
:0301150009432B70
:030116000947870F
:03011700094BE1B0
:0301180009503853
:0301190009548600
:03011A000958D7AA
:03011B00095D1E5D
:03011C0009615F17
:03011D000965A0D1
:03011E000969DC90
:03011F00096E1353
:030120000972471A
:03012100097678E4
:03012200097AA5B2
:03012300097ECC86
:030124000982EF5E
:0301250009871037
:03012600098B2A18
:03012700098F43FA
:03012800099358E0
:03012900099766CD
:03012A00099B72BC
:03012B00099F7BAE
:03012C0009A37FA5
:03012D0009A7809F
:03012E0009AB809A
:03012F0009AF7A9B
:0301300009B36DA3
:0301310009B761AA
:0301320009BB4EB8
:0301330009BF38C9
:0301340009C31DDF
:0301350009C703F4
:0301360009CAE013
:0301370009CEBD31
:0301380009D29653
:0301390009D66A7A
:03013A0009DA3BA4
:03013B0009DE0BCF
:03013C0009E1D7FF
:03013D0009E59D34
:03013E0009E9606C
:03013F0009ED1FA8
:0301400009F0D8EB
:0301410009F4912D
:0301420009F84B6E
:0301430009FBFBBA
:0301440009FFAA06
:030145000A035555
:030146000A06FEA8
:030147000A0AA001
:030148000A0E4557
:030149000A11DEBA
:03014A000A157A19
:03014B000A19127C
:03014C000A1CA6E4
:03014D000A20374E
:03014E000A23C3BE
:03014F000A274F2D
:030150000A2AD6A2
:030151000A2E591A
:030152000A31DA95
:030153000A355911
:030154000A38D591
:030155000A3C4C15
:030156000A3FC09D
:030157000A432F29
:030158000A469EB6
:030159000A4A0748
:03015A000A4D70DB
:03015B000A50D770
:03015C000A54380A
:03015D000A5796A8
:03015E000A5AF04A
:03015F000A5E48ED
:030160000A619F92
:030161000A64F33A
:030162000A6843E5
:030163000A6B9292
:030164000A6EDB45
:030165000A7221FA
:030166000A7567B0
:030167000A78A96A
:030168000A7BE728
:030169000A7F21E9
:03016A000A825CAA
:03016B000A859171
:03016C000A88C43A
:03016D000A8BF505
:03016E000A8F21D4
:03016F000A924BA6
:030170000A957479
:030171000A989851
:030172000A9BBB2A
:030173000A9EDB06
:030174000AA1F8E5
:030175000AA513C5
:030176000AA82AAA
:030177000AAB3F91
:030178000AAE5676
:030179000AB16464
:03017A000AB46F55
:03017B000AB77A46
:03017C000ABA8537
:03017D000ABD8533
:03017E000AC0892B
:03017F000AC38B25
:030180000AC68923
:030181000AC98325
:030182000ACC7B29
:030183000ACF6F31
:030184000AD26339
:030185000AD55444
:030186000AD84252
:030187000ADB2E62
:030188000ADE1A72
:030189000AE10088
:03018A000AE3E69F
:03018B000AE6C7BA
:03018C000AE9A8D5
:03018D000AEC84F5
:03018E000AEF5F16
:03018F000AF2373A
:030190000AF50B62
:030191000AF7DF8B
:030192000AFAB3B3
:030193000AFD81E1
:030194000B004D10
:030195000B031643
:030196000B05DF77
:030197000B08A4AE
:030198000B0B66E8
:030199000B0E2822
:03019A000B10E661
:03019B000B13A2A1
:03019C000B165DE2
:03019D000B191427
:03019E000B1BCA6E
:03019F000B1E7FB5
:0301A0000B212E02
:0301A1000B23DB52
:0301A2000B2688A1
:0301A3000B2932F3
:0301A4000B2BDA48
:0301A5000B2E809E
:0301A6000B3125F5
:0301A7000B33C94E
:0301A8000B3669AA
:0301A9000B39050A
:0301AA000B3BA06C
:0301AB000B3E3ACE
:0301AC000B40D134
:0301AD000B43659C
:0301AE000B45F806
:0301AF000B488A70
:0301B0000B4B18DE
:0301B1000B4DA350
:0301B2000B502EC1
:0301B3000B52B735
:0301B4000B553CAC
:0301B5000B57C025
:0301B6000B5A429F
:0301B7000B5CC11D
:0301B8000B5F4199
:0301B9000B61BD1A
:0301BA000B64379C
:0301BB000B66B020
:0301BC000B6927A5
:0301BD000B6B9930
:0301BE000B6E0ABB
:0301BF000B707B47
:0301C0000B72EAD5
:0301C1000B755665
:0301C2000B77C1F7
:0301C3000B7A298B
:0301C4000B7C9120
:0301C5000B7EF5B9
:0301C6000B815852
:0301C7000B83BAED
:0301C8000B86178C
:0301C9000B88732D
:0301CA000B8AD2CB
:0301CB000B8D2871
:0301CC000B8F8016
:0301CD000B91D8BB
:0301CE000B942D62
:0301CF000B967E0E
:0301D0000B98CDBC
:0301D1000B9B1E67
:0301D2000B9D671B
:0301D3000B9FB5CA
:0301D4000BA1FD7F
:0301D5000BA44434
:0301D6000BA689EC
:0301D7000BA8CDA5
:0301D8000BAB105E
:0301D9000BAD4E1D
:0301DA000BAF8CDC
:0301DB000BB1C99C
:0301DC000BB4055C
:0301DD000BB63F1F
:0301DE000BB877E4
:0301DF000BBAADAB
:0301E0000BBCE075
:0301E1000BBF123F
:0301E2000BC1410D
:0301E3000BC371DA
:0301E4000BC59FA9
:0301E5000BC7CA7B
:0301E6000BC9F54D
:0301E7000BCC1C22
:0301E8000BCE41FA
:0301E9000BD065D3
:0301EA000BD28CA9
:0301EB000BD4AB87
:0301EC000BD6CC63
:0301ED000BD8EB41
:0301EE000BDB0820
:0301EF000BDD2302
:0301F0000BDF3DE5
:0301F1000BE156C9
:0301F2000BE369B3
:0301F3000BE58198
:0301F4000BE79383
:0301F5000BE9A66D
:0301F6000BEBB65A
:0301F7000BEDC24B
:0301F8000BEFD03A
:0301F9000BF1DD2A
:0301FA000BF3E71D
:0301FB000BF5EF12
:0301FC000BF7F40A
:0301FD000BF9F902
:0301FE000BFBFEFA
:0301FF000BFE00F4
:00000001ff
